{
  "contractName": "SimpleStorage",
  "abi": [
    {
      "inputs": [
        {
          "internalType": "uint256",
          "name": "index",
          "type": "uint256"
        },
        {
          "internalType": "string",
          "name": "message",
          "type": "string"
        }
      ],
      "name": "setMessage",
      "outputs": [],
      "stateMutability": "nonpayable",
      "type": "function"
    },
    {
      "inputs": [
        {
          "internalType": "uint256",
          "name": "index",
          "type": "uint256"
        }
      ],
      "name": "getMessage",
      "outputs": [
        {
          "internalType": "string",
          "name": "",
          "type": "string"
        }
      ],
      "stateMutability": "view",
      "type": "function",
      "constant": true
    }
  ],
  "bytecode": "0x608060405234801561001057600080fd5b50610505806100206000396000f3fe608060405234801561001057600080fd5b50600436106100365760003560e01c8063648345c81461003b57806386f79edb14610057575b600080fd5b6100556004803603810190610050919061029f565b610087565b005b610071600480360381019061006c9190610276565b6100b2565b60405161007e919061032c565b60405180910390f35b8060008084815260200190815260200160002090805190602001906100ad929190610156565b505050565b606060008083815260200190815260200160002080546100d190610417565b80601f01602080910402602001604051908101604052809291908181526020018280546100fd90610417565b801561014a5780601f1061011f5761010080835404028352916020019161014a565b820191906000526020600020905b81548152906001019060200180831161012d57829003601f168201915b50505050509050919050565b82805461016290610417565b90600052602060002090601f01602090048101928261018457600085556101cb565b82601f1061019d57805160ff19168380011785556101cb565b828001600101855582156101cb579182015b828111156101ca5782518255916020019190600101906101af565b5b5090506101d891906101dc565b5090565b5b808211156101f55760008160009055506001016101dd565b5090565b600061020c6102078461037f565b61034e565b90508281526020810184848401111561022457600080fd5b61022f8482856103d5565b509392505050565b600082601f83011261024857600080fd5b81356102588482602086016101f9565b91505092915050565b600081359050610270816104b8565b92915050565b60006020828403121561028857600080fd5b600061029684828501610261565b91505092915050565b600080604083850312156102b257600080fd5b60006102c085828601610261565b925050602083013567ffffffffffffffff8111156102dd57600080fd5b6102e985828601610237565b9150509250929050565b60006102fe826103af565b61030881856103ba565b93506103188185602086016103e4565b610321816104a7565b840191505092915050565b6000602082019050818103600083015261034681846102f3565b905092915050565b6000604051905081810181811067ffffffffffffffff8211171561037557610374610478565b5b8060405250919050565b600067ffffffffffffffff82111561039a57610399610478565b5b601f19601f8301169050602081019050919050565b600081519050919050565b600082825260208201905092915050565b6000819050919050565b82818337600083830152505050565b60005b838110156104025780820151818401526020810190506103e7565b83811115610411576000848401525b50505050565b6000600282049050600182168061042f57607f821691505b6020821081141561044357610442610449565b5b50919050565b7f4e487b7100000000000000000000000000000000000000000000000000000000600052602260045260246000fd5b7f4e487b7100000000000000000000000000000000000000000000000000000000600052604160045260246000fd5b6000601f19601f8301169050919050565b6104c1816103cb565b81146104cc57600080fd5b5056fea264697066735822122072e8fd199c88bcecd648f0c238d0df48f7397f76a05768d640c3776d28ddedec64736f6c63430008000033",
  "immutableReferences": {},
  "source": "// SPDX-License-Identifier: MIT\r\npragma solidity ^0.8.0;\r\n\r\ncontract SimpleStorage {\r\n    mapping(uint256 => string) private messages;\r\n\r\n    function setMessage(uint256 index, string memory message) public {\r\n        messages[index] = message;\r\n    }\r\n\r\n    function getMessage(uint256 index) public view returns (string memory) {\r\n        return messages[index];\r\n    }\r\n}\r\n\r\n",
  "sourcePath": "C:\\Users\\HP\\Myproject\\contracts\\SimpleStorage.sol",
  "compiler": {
    "name": "solc",
    "version": "0.8.0+commit.c7dfd78e.Emscripten.clang"
  },
  "schemaVersion": "3.4.16",
  "updatedAt": "2024-10-03T18:28:37.904Z",
  "networkType": "ethereum",
  "devdoc": {
    "kind": "dev",
    "methods": {},
    "version": 1
  },
  "userdoc": {
    "kind": "user",
    "methods": {},
    "version": 1
  }
}